{
  "contractName": "BennyTokenSale",
  "abi": [
    {
      "inputs": [
        {
          "internalType": "contract BennyToken",
          "name": "_tokenContract",
          "type": "address"
        },
        {
          "internalType": "uint256",
          "name": "_tokenPrice",
          "type": "uint256"
        }
      ],
      "stateMutability": "nonpayable",
      "type": "constructor"
    },
    {
      "anonymous": false,
      "inputs": [
        {
          "indexed": false,
          "internalType": "address",
          "name": "_buyer",
          "type": "address"
        },
        {
          "indexed": false,
          "internalType": "uint256",
          "name": "_amount",
          "type": "uint256"
        }
      ],
      "name": "Sell",
      "type": "event"
    },
    {
      "inputs": [],
      "name": "tokenContract",
      "outputs": [
        {
          "internalType": "contract BennyToken",
          "name": "",
          "type": "address"
        }
      ],
      "stateMutability": "view",
      "type": "function",
      "constant": true
    },
    {
      "inputs": [],
      "name": "tokenPrice",
      "outputs": [
        {
          "internalType": "uint256",
          "name": "",
          "type": "uint256"
        }
      ],
      "stateMutability": "view",
      "type": "function",
      "constant": true
    },
    {
      "inputs": [],
      "name": "tokensSold",
      "outputs": [
        {
          "internalType": "uint256",
          "name": "",
          "type": "uint256"
        }
      ],
      "stateMutability": "view",
      "type": "function",
      "constant": true
    },
    {
      "inputs": [
        {
          "internalType": "uint256",
          "name": "_numberOfTokens",
          "type": "uint256"
        }
      ],
      "name": "buyTokens",
      "outputs": [],
      "stateMutability": "payable",
      "type": "function",
      "payable": true
    }
  ],
  "bytecode": "0x608060405234801561001057600080fd5b506040516105653803806105658339818101604052604081101561003357600080fd5b810190808051906020019092919080519060200190929190505050336000806101000a81548173ffffffffffffffffffffffffffffffffffffffff021916908373ffffffffffffffffffffffffffffffffffffffff16021790555081600160006101000a81548173ffffffffffffffffffffffffffffffffffffffff021916908373ffffffffffffffffffffffffffffffffffffffff16021790555080600281905550505061047e806100e76000396000f3fe60806040526004361061005c576000357c0100000000000000000000000000000000000000000000000000000000900480633610724e14610061578063518ab2a81461008f57806355a373d6146100ba5780637ff9b59614610111575b600080fd5b61008d6004803603602081101561007757600080fd5b810190808035906020019092919050505061013c565b005b34801561009b57600080fd5b506100a46102e7565b6040518082815260200191505060405180910390f35b3480156100c657600080fd5b506100cf6102ed565b604051808273ffffffffffffffffffffffffffffffffffffffff1673ffffffffffffffffffffffffffffffffffffffff16815260200191505060405180910390f35b34801561011d57600080fd5b50610126610313565b6040518082815260200191505060405180910390f35b6101516002548261031990919063ffffffff16565b341461015c57600080fd5b80600160009054906101000a900473ffffffffffffffffffffffffffffffffffffffff1673ffffffffffffffffffffffffffffffffffffffff166370a08231306040518263ffffffff167c0100000000000000000000000000000000000000000000000000000000028152600401808273ffffffffffffffffffffffffffffffffffffffff1673ffffffffffffffffffffffffffffffffffffffff16815260200191505060206040518083038186803b15801561021857600080fd5b505afa15801561022c573d6000803e3d6000fd5b505050506040513d602081101561024257600080fd5b8101908080519060200190929190505050101561025e57600080fd5b6102738160035461039f90919063ffffffff16565b6003819055507f5e5e995ce3133561afceaa51a9a154d5db228cd7525d34df5185582c18d3df093382604051808373ffffffffffffffffffffffffffffffffffffffff1673ffffffffffffffffffffffffffffffffffffffff1681526020018281526020019250505060405180910390a150565b60035481565b600160009054906101000a900473ffffffffffffffffffffffffffffffffffffffff1681565b60025481565b60008083141561032c5760009050610399565b600082840290508284828161033d57fe5b0414610394576040517f08c379a00000000000000000000000000000000000000000000000000000000081526004018080602001828103825260218152602001806104286021913960400191505060405180910390fd5b809150505b92915050565b60008082840190508381101561041d576040517f08c379a000000000000000000000000000000000000000000000000000000000815260040180806020018281038252601b8152602001807f536166654d6174683a206164646974696f6e206f766572666c6f77000000000081525060200191505060405180910390fd5b809150509291505056fe536166654d6174683a206d756c7469706c69636174696f6e206f766572666c6f77a26469706673582212201c501eab7465488ae70277b92094bce2e85c69bd907283a1eee96b7028646b2264736f6c63430006000033",
  "source": "// SPDX-License-Identifier: MIT\npragma solidity >=0.4.22 <0.9.0;\n\nimport \"./BennyToken.sol\";\nimport \"@openzeppelin/contracts/math/SafeMath.sol\";\n\ncontract BennyTokenSale {\n  using SafeMath for uint256;\n  address admin; // we don't want to expose the address of admin so its visibility is not 'public'\n  BennyToken public tokenContract;\n  uint256 public tokenPrice;\n  uint256 public tokensSold;\n\n  event Sell(address _buyer, uint256 _amount);\n\n  constructor(BennyToken _tokenContract, uint256 _tokenPrice) public {\n    // Assign an admin\n    admin = msg.sender;\n\n    // Assign token contract\n    tokenContract = _tokenContract;\n\n    // Assign token price\n    tokenPrice = _tokenPrice;\n  }\n\n  function buyTokens(uint256 _numberOfTokens) public payable {\n    // Require that value is equal to the value of tokens\n    require(msg.value == _numberOfTokens.mul(tokenPrice));\n\n    // Require that the contract has enough tokens\n    require(tokenContract.balanceOf(address(this)) >= _numberOfTokens);\n\n    // Require that a transfer is successful\n    // require(tokenContract.transfer(msg.sender, _numberOfTokens));\n\n    // Keep track of number of tokens sold\n    tokensSold = tokensSold.add(_numberOfTokens);\n\n    emit Sell(msg.sender, _numberOfTokens);\n  }\n\n  //   function endSale() public {\n  //     require(msg.sender == admin);\n  //     require(tokenContract.transfer(admin, tokenContract.balanceOf(this)));\n\n  //     admin.transfer(address(this).balance);\n  //   }\n}\n",
  "sourcePath": "/Users/bennyjoo/Documents/benny-token/contracts/BennyTokenSale.sol",
  "compiler": {
    "name": "solc",
    "version": "0.6.0+commit.26b70077.Emscripten.clang"
  },
  "schemaVersion": "3.3.3",
  "updatedAt": "2021-01-02T18:50:25.047Z",
  "networkType": "ethereum",
  "devdoc": {
    "methods": {}
  },
  "userdoc": {
    "methods": {}
  }
}