{
  "contractName": "BennyToken",
  "abi": [
    {
      "inputs": [],
      "payable": false,
      "stateMutability": "nonpayable",
      "type": "constructor"
    },
    {
      "constant": true,
      "inputs": [],
      "name": "totalSupply",
      "outputs": [
        {
          "internalType": "uint256",
          "name": "",
          "type": "uint256"
        }
      ],
      "payable": false,
      "stateMutability": "view",
      "type": "function"
    }
  ],
  "bytecode": "0x6080604052348015600f57600080fd5b50620f42406000819055506084806100286000396000f3fe6080604052348015600f57600080fd5b506004361060285760003560e01c806318160ddd14602d575b600080fd5b60336049565b6040518082815260200191505060405180910390f35b6000548156fea265627a7a72315820c0998f3085ca0adcf8c8c2f8b6782f17668ac6450176e6bb7b99c5c679fdf50264736f6c63430005100032",
  "source": "// SPDX-License-Identifier: MIT\npragma solidity >=0.4.22 <0.9.0;\n\ncontract BennyToken {\n  // string public name = \"Benny Token\";\n  // string public symbol = \"BENNY\";\n  // string public standard = \"Benny Token v1.0\";\n  uint256 public totalSupply;\n\n  // event Transfer(address indexed _from, address indexed _to, uint256 _value);\n\n  // event Approval(\n  //   address indexed _owner,\n  //   address indexed _spender,\n  //   uint256 _value\n  // );\n\n  // mapping(address => uint256) public balanceOf;\n  // mapping(address => mapping(address => uint256)) public allowance;\n\n  constructor() public {\n    totalSupply = 1000000;\n  }\n\n  // function transfer(address _to, uint256 _value) public returns (bool success) {\n  //   require(balanceOf[msg.sender] >= _value);\n\n  //   balanceOf[msg.sender] -= _value;\n  //   balanceOf[_to] += _value;\n\n  //   emit Transfer(msg.sender, _to, _value);\n\n  //   return true;\n  // }\n\n  // function approve(address _spender, uint256 _value)\n  //   public\n  //   returns (bool success)\n  // {\n  //   allowance[msg.sender][_spender] = _value;\n\n  //   emit Approval(msg.sender, _spender, _value);\n\n  //   return true;\n  // }\n\n  // function transferFrom(\n  //   address _from,\n  //   address _to,\n  //   uint256 _value\n  // ) public returns (bool success) {\n  //   require(_value <= balanceOf[_from]);\n  //   require(_value <= allowance[_from][msg.sender]);\n\n  //   balanceOf[_from] -= _value;\n  //   balanceOf[_to] += _value;\n\n  //   allowance[_from][msg.sender] -= _value;\n\n  //   emit Transfer(_from, _to, _value);\n\n  //   return true;\n  // }\n}\n",
  "sourcePath": "/Users/bennyjoo/Documents/token_sale/contracts/BennyToken.sol",
  "compiler": {
    "name": "solc",
    "version": "0.5.16+commit.9c3226ce.Emscripten.clang"
  },
  "schemaVersion": "3.3.3",
  "updatedAt": "2021-01-01T14:37:44.570Z",
  "networkType": "ethereum",
  "devdoc": {
    "methods": {}
  },
  "userdoc": {
    "methods": {}
  }
}